:1009CF000212000002160000021400000A08C0F90B
:0809DF00A4B0999282F8809007
:06098500C2A57F147E00F4
:10098B00D3EF9400EE94004015E4FCFD0DBD000187
:0E099B000CED647D4C70F5EF1F70E51E80E2E0
:0109A900222B
:10088C00E4FBE51345127004C2A380117408251310
:10089C00F8E6F590D2A3C2A4120985C2A3E51345CC
:1008AC0012700AE51745167004C2A480117408254D
:1008BC0017F8E6F590C2A3D2A4120985C2A4740855
:1008CC002515F8E6F590C2A3C2A4D2A5120987C2D9
:0508DC00A50BBB32ADCD
:0108E10022F4
:1009AA0020B106C2A2C2A1C2A020B206C2A2C2A19E
:1009BA00D2A020B306C2A2D2A1C2A020B406C2A26B
:0509CA00D2A1D2A02221
:10093700E4FBFAD2A71209AAC2A7C2B6D2B630B050
:10094700FDC2B7AF80AB077C007D647E001208E272
:100957008E128F137C007D0AAF037E001208E27CA3
:10096700007D0A1208E28C168D177E00AF037C000B
:0D0977007D0A1208E28C148D15D2A7D2B7AC
:010984002250
:0E09E800C2A2C2A1C2A012093712088C80F868
:03000000020800F3
:0C080000787FE4F6D8FD758117020847E8
:1008E200BC000BBE0029EF8DF084FFADF022E4CCFA
:1008F200F875F008EF2FFFEE33FEEC33FCEE9DECC3
:10090200984005FCEE9DFE0FD5F0E9E4CEFD22ED08
:10091200F8F5F0EE8420D21CFEADF075F008EF2F52
:10092200FFED33FD4007985006D5F0F222C398FD43
:050932000FD5F0EA22E0
:10080C000209E8E493A3F8E493A34003F68001F211
:10081C0008DFF48029E493A3F85407240CC8C333ED
:10082C00C4540F4420C8834004F456800146F6DFBC
:10083C00E4800B01020408102040809009CFE47E74
:10084C00019360BCA3FF543F30E509541FFEE493B1
:10085C00A360010ECF54C025E060A840B8E493A378
:10086C00FAE493A3F8E493A3C8C582C8CAC583CAA3
:10087C00F0A3C8C582C8CAC583CADFE9DEE780BE5B
:0109E700000F
:00000001FF
